:020000040800F2
:10000000680600206D0100087501000877010008EE
:10001000790100087B0100087D0100080000000054
:100020000000000000000000000000007F01000848
:10003000810100080000000083010008850100081C
:100040008701000887010008870100088701000870
:100050008701000887010008870100088701000860
:100060008701000887010008870100088701000850
:100070008701000887010008870100088701000840
:100080008701000887010008870100088701000830
:100090008701000887010008870100088701000820
:1000A0008701000887010008870100088701000810
:1000B0008701000887010008870100088701000800
:1000C00087010008870100088701000887010008F0
:1000D00087010008870100088701000887010008E0
:1000E00029020008870100088701000800F002F8D3
:1000F00000F02CF80AA090E8000C82448344AAF196
:100100000107DA4501D100F021F8AFF2090EBAE893
:100110000F0013F0010F18BFFB1A43F0010318473B
:1001200018030000280300000023002400250026F7
:10013000103A28BF78C1FBD8520728BF30C148BF4A
:100140000B6070471FB51FBD10B510BD00F031F832
:100150001146FFF7F7FF00F017F900F04FF803B46E
:10016000FFF7F2FF03BC00F057F800000948804792
:1001700009480047FEE7FEE7FEE7FEE7FEE7FEE789
:10018000FEE7FEE7FEE7FEE704480549054A064BA1
:100190007047000021030008ED00000868000020FF
:1001A000680600206802002068020020704770473F
:1001B0007047754600F02CF8AE4605006946534678
:1001C00020F00700854618B020B5FFF7DDFFBDE839
:1001D00020404FF000064FF000074FF000084FF0AE
:1001E000000BAC46ACE8C009ACE8C009ACE8C009FB
:1001F000ACE8C00921F007018D46704710B50446F0
:10020000AFF300802046BDE81040FFF7A8BF000014
:10021000004870470000002001491820ABBEFEE7EF
:10022000260002007047000040F21440C4F20100B2
:10023000016841F40051016040F26000C2F2000028
:1002400001680131016041F20C00C4F20100016853
:1002500081F400510160704780B500F001F880BD65
:1002600082B041F204000021C4F202000191009129
:1002700050F8041C41F4803140F8041C50F8041C70
:1002800001F400310091019901310191009919B9EE
:100290000199B1F5A06FF1D150F8041C890354BF46
:1002A0000021012100910099012936D142F200017B
:1002B000C4F202010A6842F010020A600A6822F0E1
:1002C00003020A600A6842F002020A6001680160E3
:1002D00001680160016841F480610160016821F4F6
:1002E0007C110160016841F4E811016050F8041CC0
:1002F00041F0807140F8041C50F8041C8901FBD5C2
:10030000016821F003010160016841F00201016010
:10031000016801F00C010829FAD102B07047000011
:1003200080B541F20000C4F202000168002241F0F1
:10033000010101604168CFF6FF0211404160016890
:100340004FF6FF72CFF6F66211400160016821F4AA
:1003500080210160416821F4FE0141604FF41F01DA
:100360008160FFF779FF4EF60850CEF200004FF0A3
:100370000061016080BD00004EF20410CEF200006A
:100380004FF480710160704741F21800C4F202001E
:10039000016841F001010160016841F0080101605C
:1003A000016841F01001016041F20400C4F2010053
:1003B000016841F400110160016821F450010160FD
:1003C00040F60441C4F201010A6842F400020A60E6
:1003D0000A6822F4E0020A604FF60442CFF6FF7288
:1003E000835823F4005383504FF21040CFF6FF7030
:1003F00010220A500A5822F0E0020A504FF2FC7014
:10040000CFF6FF700A5842F400520A504FF604002B
:10041000CFF6FF700A5842F400520A504FF6080017
:10042000CFF6FF700A5822F400520A50FFF7A4FFDB
:1004300062B600BFFEE7000048040008000000208C
:08044000680600002801000815
:040000050800016D81
:00000001FF
